{
  "_format": "hh-sol-artifact-1",
  "contractName": "Staking",
  "sourceName": "contracts/Staking.sol",
  "abi": [
    {
      "inputs": [
        {
          "internalType": "address",
          "name": "_token",
          "type": "address"
        }
      ],
      "stateMutability": "nonpayable",
      "type": "constructor"
    },
    {
      "inputs": [],
      "name": "blocksPerDay",
      "outputs": [
        {
          "internalType": "uint256",
          "name": "",
          "type": "uint256"
        }
      ],
      "stateMutability": "view",
      "type": "function"
    },
    {
      "inputs": [],
      "name": "claimRewards",
      "outputs": [],
      "stateMutability": "nonpayable",
      "type": "function"
    },
    {
      "inputs": [],
      "name": "rewardRate",
      "outputs": [
        {
          "internalType": "uint256",
          "name": "",
          "type": "uint256"
        }
      ],
      "stateMutability": "view",
      "type": "function"
    },
    {
      "inputs": [
        {
          "internalType": "uint256",
          "name": "_amount",
          "type": "uint256"
        }
      ],
      "name": "stake",
      "outputs": [],
      "stateMutability": "nonpayable",
      "type": "function"
    },
    {
      "inputs": [
        {
          "internalType": "address",
          "name": "",
          "type": "address"
        }
      ],
      "name": "stakes",
      "outputs": [
        {
          "internalType": "uint256",
          "name": "amount",
          "type": "uint256"
        },
        {
          "internalType": "uint256",
          "name": "lastUpdate",
          "type": "uint256"
        },
        {
          "internalType": "uint256",
          "name": "pendingRewards",
          "type": "uint256"
        }
      ],
      "stateMutability": "view",
      "type": "function"
    },
    {
      "inputs": [],
      "name": "token",
      "outputs": [
        {
          "internalType": "contract ERC20",
          "name": "",
          "type": "address"
        }
      ],
      "stateMutability": "view",
      "type": "function"
    },
    {
      "inputs": [],
      "name": "totalStaked",
      "outputs": [
        {
          "internalType": "uint256",
          "name": "",
          "type": "uint256"
        }
      ],
      "stateMutability": "view",
      "type": "function"
    },
    {
      "inputs": [],
      "name": "unstake",
      "outputs": [],
      "stateMutability": "nonpayable",
      "type": "function"
    },
    {
      "inputs": [
        {
          "internalType": "address",
          "name": "_user",
          "type": "address"
        }
      ],
      "name": "viewRewards",
      "outputs": [
        {
          "internalType": "uint256",
          "name": "",
          "type": "uint256"
        }
      ],
      "stateMutability": "view",
      "type": "function"
    }
  ],
  "bytecode": "0x60806040526001805561384060025534801561001a57600080fd5b5060405162000fdf38038062000fdf833981810160405281019061003e91906100e7565b806000806101000a81548173ffffffffffffffffffffffffffffffffffffffff021916908373ffffffffffffffffffffffffffffffffffffffff16021790555050610114565b600080fd5b600073ffffffffffffffffffffffffffffffffffffffff82169050919050565b60006100b482610089565b9050919050565b6100c4816100a9565b81146100cf57600080fd5b50565b6000815190506100e1816100bb565b92915050565b6000602082840312156100fd576100fc610084565b5b600061010b848285016100d2565b91505092915050565b610ebb80620001246000396000f3fe608060405234801561001057600080fd5b50600436106100935760003560e01c80637b0a47ee116100665780637b0a47ee146100fc578063817b1cd21461011a578063a694fc3a14610138578063da40ef8014610154578063fc0c546a1461018457610093565b806316934fc4146100985780632def6620146100ca578063372500ab146100d45780634cfea68a146100de575b600080fd5b6100b260048036038101906100ad91906109c7565b6101a2565b6040516100c193929190610a0d565b60405180910390f35b6100d26101cc565b005b6100dc61038e565b005b6100e6610523565b6040516100f39190610a44565b60405180910390f35b610104610529565b6040516101119190610a44565b60405180910390f35b61012261052f565b60405161012f9190610a44565b60405180910390f35b610152600480360381019061014d9190610a8b565b610535565b005b61016e600480360381019061016991906109c7565b610818565b60405161017b9190610a44565b60405180910390f35b61018c610877565b6040516101999190610b17565b60405180910390f35b60036020528060005260406000206000915090508060000154908060010154908060020154905083565b6000600360003373ffffffffffffffffffffffffffffffffffffffff1673ffffffffffffffffffffffffffffffffffffffff168152602001908152602001600020600001549050600061021e3361089b565b600360003373ffffffffffffffffffffffffffffffffffffffff1673ffffffffffffffffffffffffffffffffffffffff1681526020019081526020016000206002015461026b9190610b61565b9050816004600082825461027f9190610b95565b9250508190555060008054906101000a900473ffffffffffffffffffffffffffffffffffffffff1673ffffffffffffffffffffffffffffffffffffffff1663a9059cbb3383856102cf9190610b61565b6040518363ffffffff1660e01b81526004016102ec929190610bd8565b6020604051808303816000875af115801561030b573d6000803e3d6000fd5b505050506040513d601f19601f8201168201806040525081019061032f9190610c39565b50600360003373ffffffffffffffffffffffffffffffffffffffff1673ffffffffffffffffffffffffffffffffffffffff1681526020019081526020016000206000808201600090556001820160009055600282016000905550505050565b60006103993361089b565b600360003373ffffffffffffffffffffffffffffffffffffffff1673ffffffffffffffffffffffffffffffffffffffff168152602001908152602001600020600201546103e69190610b61565b90506000600360003373ffffffffffffffffffffffffffffffffffffffff1673ffffffffffffffffffffffffffffffffffffffff1681526020019081526020016000206002018190555043600360003373ffffffffffffffffffffffffffffffffffffffff1673ffffffffffffffffffffffffffffffffffffffff1681526020019081526020016000206001018190555060008111156105205760008054906101000a900473ffffffffffffffffffffffffffffffffffffffff1673ffffffffffffffffffffffffffffffffffffffff1663a9059cbb33836040518363ffffffff1660e01b81526004016104db929190610bd8565b6020604051808303816000875af11580156104fa573d6000803e3d6000fd5b505050506040513d601f19601f8201168201806040525081019061051e9190610c39565b505b50565b60025481565b60015481565b60045481565b60008111610578576040517f08c379a000000000000000000000000000000000000000000000000000000000815260040161056f90610cc3565b60405180910390fd5b8060008054906101000a900473ffffffffffffffffffffffffffffffffffffffff1673ffffffffffffffffffffffffffffffffffffffff166370a08231336040518263ffffffff1660e01b81526004016105d29190610ce3565b602060405180830381865afa1580156105ef573d6000803e3d6000fd5b505050506040513d601f19601f820116820180604052508101906106139190610d13565b1015610654576040517f08c379a000000000000000000000000000000000000000000000000000000000815260040161064b90610d8c565b60405180910390fd5b600061065f3361089b565b905080600360003373ffffffffffffffffffffffffffffffffffffffff1673ffffffffffffffffffffffffffffffffffffffff16815260200190815260200160002060020160008282546106b39190610b61565b9250508190555060008054906101000a900473ffffffffffffffffffffffffffffffffffffffff1673ffffffffffffffffffffffffffffffffffffffff166323b872dd3330856040518463ffffffff1660e01b815260040161071793929190610dac565b6020604051808303816000875af1158015610736573d6000803e3d6000fd5b505050506040513d601f19601f8201168201806040525081019061075a9190610c39565b5081600360003373ffffffffffffffffffffffffffffffffffffffff1673ffffffffffffffffffffffffffffffffffffffff16815260200190815260200160002060000160008282546107ad9190610b61565b9250508190555043600360003373ffffffffffffffffffffffffffffffffffffffff1673ffffffffffffffffffffffffffffffffffffffff16815260200190815260200160002060010181905550816004600082825461080d9190610b61565b925050819055505050565b60006108238261089b565b600360008473ffffffffffffffffffffffffffffffffffffffff1673ffffffffffffffffffffffffffffffffffffffff168152602001908152602001600020600201546108709190610b61565b9050919050565b60008054906101000a900473ffffffffffffffffffffffffffffffffffffffff1681565b600080600360008473ffffffffffffffffffffffffffffffffffffffff1673ffffffffffffffffffffffffffffffffffffffff16815260200190815260200160002060010154436108ec9190610b95565b905060006103e86002546109009190610de3565b600360008673ffffffffffffffffffffffffffffffffffffffff1673ffffffffffffffffffffffffffffffffffffffff1681526020019081526020016000206000015461094d9190610e54565b9050808261095b9190610de3565b92505050919050565b600080fd5b600073ffffffffffffffffffffffffffffffffffffffff82169050919050565b600061099482610969565b9050919050565b6109a481610989565b81146109af57600080fd5b50565b6000813590506109c18161099b565b92915050565b6000602082840312156109dd576109dc610964565b5b60006109eb848285016109b2565b91505092915050565b6000819050919050565b610a07816109f4565b82525050565b6000606082019050610a2260008301866109fe565b610a2f60208301856109fe565b610a3c60408301846109fe565b949350505050565b6000602082019050610a5960008301846109fe565b92915050565b610a68816109f4565b8114610a7357600080fd5b50565b600081359050610a8581610a5f565b92915050565b600060208284031215610aa157610aa0610964565b5b6000610aaf84828501610a76565b91505092915050565b6000819050919050565b6000610add610ad8610ad384610969565b610ab8565b610969565b9050919050565b6000610aef82610ac2565b9050919050565b6000610b0182610ae4565b9050919050565b610b1181610af6565b82525050565b6000602082019050610b2c6000830184610b08565b92915050565b7f4e487b7100000000000000000000000000000000000000000000000000000000600052601160045260246000fd5b6000610b6c826109f4565b9150610b77836109f4565b9250828201905080821115610b8f57610b8e610b32565b5b92915050565b6000610ba0826109f4565b9150610bab836109f4565b9250828203905081811115610bc357610bc2610b32565b5b92915050565b610bd281610989565b82525050565b6000604082019050610bed6000830185610bc9565b610bfa60208301846109fe565b9392505050565b60008115159050919050565b610c1681610c01565b8114610c2157600080fd5b50565b600081519050610c3381610c0d565b92915050565b600060208284031215610c4f57610c4e610964565b5b6000610c5d84828501610c24565b91505092915050565b600082825260208201905092915050565b7f416d6f756e74206d7573742062652067726561746572207468616e2030000000600082015250565b6000610cad601d83610c66565b9150610cb882610c77565b602082019050919050565b60006020820190508181036000830152610cdc81610ca0565b9050919050565b6000602082019050610cf86000830184610bc9565b92915050565b600081519050610d0d81610a5f565b92915050565b600060208284031215610d2957610d28610964565b5b6000610d3784828501610cfe565b91505092915050565b7f496e73756666696369656e742062616c616e6365000000000000000000000000600082015250565b6000610d76601483610c66565b9150610d8182610d40565b602082019050919050565b60006020820190508181036000830152610da581610d69565b9050919050565b6000606082019050610dc16000830186610bc9565b610dce6020830185610bc9565b610ddb60408301846109fe565b949350505050565b6000610dee826109f4565b9150610df9836109f4565b9250828202610e07816109f4565b91508282048414831517610e1e57610e1d610b32565b5b5092915050565b7f4e487b7100000000000000000000000000000000000000000000000000000000600052601260045260246000fd5b6000610e5f826109f4565b9150610e6a836109f4565b925082610e7a57610e79610e25565b5b82820490509291505056fea2646970667358221220cc05a5f87ca3903da4aff17d45edd043bec57f62c2aee7a504759131cdade2cf64736f6c63430008180033",
  "linkReferences": {},
  "deployedLinkReferences": {}
}