{
  "_format": "hh-sol-artifact-1",
  "contractName": "MockERC20",
  "sourceName": "contracts/MockERC20.sol",
  "abi": [
    {
      "inputs": [
        {
          "internalType": "string",
          "name": "name",
          "type": "string"
        },
        {
          "internalType": "string",
          "name": "symbol",
          "type": "string"
        },
        {
          "internalType": "uint256",
          "name": "initialSupply",
          "type": "uint256"
        }
      ],
      "stateMutability": "nonpayable",
      "type": "constructor"
    },
    {
      "inputs": [
        {
          "internalType": "address",
          "name": "spender",
          "type": "address"
        },
        {
          "internalType": "uint256",
          "name": "allowance",
          "type": "uint256"
        },
        {
          "internalType": "uint256",
          "name": "needed",
          "type": "uint256"
        }
      ],
      "name": "ERC20InsufficientAllowance",
      "type": "error"
    },
    {
      "inputs": [
        {
          "internalType": "address",
          "name": "sender",
          "type": "address"
        },
        {
          "internalType": "uint256",
          "name": "balance",
          "type": "uint256"
        },
        {
          "internalType": "uint256",
          "name": "needed",
          "type": "uint256"
        }
      ],
      "name": "ERC20InsufficientBalance",
      "type": "error"
    },
    {
      "inputs": [
        {
          "internalType": "address",
          "name": "approver",
          "type": "address"
        }
      ],
      "name": "ERC20InvalidApprover",
      "type": "error"
    },
    {
      "inputs": [
        {
          "internalType": "address",
          "name": "receiver",
          "type": "address"
        }
      ],
      "name": "ERC20InvalidReceiver",
      "type": "error"
    },
    {
      "inputs": [
        {
          "internalType": "address",
          "name": "sender",
          "type": "address"
        }
      ],
      "name": "ERC20InvalidSender",
      "type": "error"
    },
    {
      "inputs": [
        {
          "internalType": "address",
          "name": "spender",
          "type": "address"
        }
      ],
      "name": "ERC20InvalidSpender",
      "type": "error"
    },
    {
      "anonymous": false,
      "inputs": [
        {
          "indexed": true,
          "internalType": "address",
          "name": "owner",
          "type": "address"
        },
        {
          "indexed": true,
          "internalType": "address",
          "name": "spender",
          "type": "address"
        },
        {
          "indexed": false,
          "internalType": "uint256",
          "name": "value",
          "type": "uint256"
        }
      ],
      "name": "Approval",
      "type": "event"
    },
    {
      "anonymous": false,
      "inputs": [
        {
          "indexed": true,
          "internalType": "address",
          "name": "from",
          "type": "address"
        },
        {
          "indexed": true,
          "internalType": "address",
          "name": "to",
          "type": "address"
        },
        {
          "indexed": false,
          "internalType": "uint256",
          "name": "value",
          "type": "uint256"
        }
      ],
      "name": "Transfer",
      "type": "event"
    },
    {
      "inputs": [
        {
          "internalType": "address",
          "name": "owner",
          "type": "address"
        },
        {
          "internalType": "address",
          "name": "spender",
          "type": "address"
        }
      ],
      "name": "allowance",
      "outputs": [
        {
          "internalType": "uint256",
          "name": "",
          "type": "uint256"
        }
      ],
      "stateMutability": "view",
      "type": "function"
    },
    {
      "inputs": [
        {
          "internalType": "address",
          "name": "spender",
          "type": "address"
        },
        {
          "internalType": "uint256",
          "name": "value",
          "type": "uint256"
        }
      ],
      "name": "approve",
      "outputs": [
        {
          "internalType": "bool",
          "name": "",
          "type": "bool"
        }
      ],
      "stateMutability": "nonpayable",
      "type": "function"
    },
    {
      "inputs": [
        {
          "internalType": "address",
          "name": "account",
          "type": "address"
        }
      ],
      "name": "balanceOf",
      "outputs": [
        {
          "internalType": "uint256",
          "name": "",
          "type": "uint256"
        }
      ],
      "stateMutability": "view",
      "type": "function"
    },
    {
      "inputs": [
        {
          "internalType": "address",
          "name": "account",
          "type": "address"
        },
        {
          "internalType": "uint256",
          "name": "amount",
          "type": "uint256"
        }
      ],
      "name": "burn",
      "outputs": [],
      "stateMutability": "nonpayable",
      "type": "function"
    },
    {
      "inputs": [],
      "name": "decimals",
      "outputs": [
        {
          "internalType": "uint8",
          "name": "",
          "type": "uint8"
        }
      ],
      "stateMutability": "view",
      "type": "function"
    },
    {
      "inputs": [],
      "name": "name",
      "outputs": [
        {
          "internalType": "string",
          "name": "",
          "type": "string"
        }
      ],
      "stateMutability": "view",
      "type": "function"
    },
    {
      "inputs": [],
      "name": "symbol",
      "outputs": [
        {
          "internalType": "string",
          "name": "",
          "type": "string"
        }
      ],
      "stateMutability": "view",
      "type": "function"
    },
    {
      "inputs": [],
      "name": "totalSupply",
      "outputs": [
        {
          "internalType": "uint256",
          "name": "",
          "type": "uint256"
        }
      ],
      "stateMutability": "view",
      "type": "function"
    },
    {
      "inputs": [
        {
          "internalType": "address",
          "name": "recipient",
          "type": "address"
        },
        {
          "internalType": "uint256",
          "name": "amount",
          "type": "uint256"
        }
      ],
      "name": "transfer",
      "outputs": [
        {
          "internalType": "bool",
          "name": "",
          "type": "bool"
        }
      ],
      "stateMutability": "nonpayable",
      "type": "function"
    },
    {
      "inputs": [
        {
          "internalType": "address",
          "name": "from",
          "type": "address"
        },
        {
          "internalType": "address",
          "name": "to",
          "type": "address"
        },
        {
          "internalType": "uint256",
          "name": "value",
          "type": "uint256"
        }
      ],
      "name": "transferFrom",
      "outputs": [
        {
          "internalType": "bool",
          "name": "",
          "type": "bool"
        }
      ],
      "stateMutability": "nonpayable",
      "type": "function"
    }
  ],
  "bytecode": "0x60806040523480156200001157600080fd5b506040516200191538038062001915833981810160405281019062000037919062000505565b828281600390816200004a9190620007e0565b5080600490816200005c9190620007e0565b5050506200007133826200007a60201b60201c565b505050620009fe565b600073ffffffffffffffffffffffffffffffffffffffff168273ffffffffffffffffffffffffffffffffffffffff1603620000ef5760006040517fec442f05000000000000000000000000000000000000000000000000000000008152600401620000e691906200090c565b60405180910390fd5b62000103600083836200010760201b60201c565b5050565b600073ffffffffffffffffffffffffffffffffffffffff168373ffffffffffffffffffffffffffffffffffffffff16036200015d57806002600082825462000150919062000958565b9250508190555062000233565b60008060008573ffffffffffffffffffffffffffffffffffffffff1673ffffffffffffffffffffffffffffffffffffffff16815260200190815260200160002054905081811015620001ec578381836040517fe450d38c000000000000000000000000000000000000000000000000000000008152600401620001e393929190620009a4565b60405180910390fd5b8181036000808673ffffffffffffffffffffffffffffffffffffffff1673ffffffffffffffffffffffffffffffffffffffff16815260200190815260200160002081905550505b600073ffffffffffffffffffffffffffffffffffffffff168273ffffffffffffffffffffffffffffffffffffffff16036200027e5780600260008282540392505081905550620002cb565b806000808473ffffffffffffffffffffffffffffffffffffffff1673ffffffffffffffffffffffffffffffffffffffff168152602001908152602001600020600082825401925050819055505b8173ffffffffffffffffffffffffffffffffffffffff168373ffffffffffffffffffffffffffffffffffffffff167fddf252ad1be2c89b69c2b068fc378daa952ba7f163c4a11628f55a4df523b3ef836040516200032a9190620009e1565b60405180910390a3505050565b6000604051905090565b600080fd5b600080fd5b600080fd5b600080fd5b6000601f19601f8301169050919050565b7f4e487b7100000000000000000000000000000000000000000000000000000000600052604160045260246000fd5b620003a08262000355565b810181811067ffffffffffffffff82111715620003c257620003c162000366565b5b80604052505050565b6000620003d762000337565b9050620003e5828262000395565b919050565b600067ffffffffffffffff82111562000408576200040762000366565b5b620004138262000355565b9050602081019050919050565b60005b838110156200044057808201518184015260208101905062000423565b60008484015250505050565b6000620004636200045d84620003ea565b620003cb565b90508281526020810184848401111562000482576200048162000350565b5b6200048f84828562000420565b509392505050565b600082601f830112620004af57620004ae6200034b565b5b8151620004c18482602086016200044c565b91505092915050565b6000819050919050565b620004df81620004ca565b8114620004eb57600080fd5b50565b600081519050620004ff81620004d4565b92915050565b60008060006060848603121562000521576200052062000341565b5b600084015167ffffffffffffffff81111562000542576200054162000346565b5b620005508682870162000497565b935050602084015167ffffffffffffffff81111562000574576200057362000346565b5b620005828682870162000497565b92505060406200059586828701620004ee565b9150509250925092565b600081519050919050565b7f4e487b7100000000000000000000000000000000000000000000000000000000600052602260045260246000fd5b60006002820490506001821680620005f257607f821691505b602082108103620006085762000607620005aa565b5b50919050565b60008190508160005260206000209050919050565b60006020601f8301049050919050565b600082821b905092915050565b600060088302620006727fffffffffffffffffffffffffffffffffffffffffffffffffffffffffffffffff8262000633565b6200067e868362000633565b95508019841693508086168417925050509392505050565b6000819050919050565b6000620006c1620006bb620006b584620004ca565b62000696565b620004ca565b9050919050565b6000819050919050565b620006dd83620006a0565b620006f5620006ec82620006c8565b84845462000640565b825550505050565b600090565b6200070c620006fd565b62000719818484620006d2565b505050565b5b8181101562000741576200073560008262000702565b6001810190506200071f565b5050565b601f82111562000790576200075a816200060e565b620007658462000623565b8101602085101562000775578190505b6200078d620007848562000623565b8301826200071e565b50505b505050565b600082821c905092915050565b6000620007b56000198460080262000795565b1980831691505092915050565b6000620007d08383620007a2565b9150826002028217905092915050565b620007eb826200059f565b67ffffffffffffffff81111562000807576200080662000366565b5b620008138254620005d9565b6200082082828562000745565b600060209050601f83116001811462000858576000841562000843578287015190505b6200084f8582620007c2565b865550620008bf565b601f19841662000868866200060e565b60005b8281101562000892578489015182556001820191506020850194506020810190506200086b565b86831015620008b25784890151620008ae601f891682620007a2565b8355505b6001600288020188555050505b505050505050565b600073ffffffffffffffffffffffffffffffffffffffff82169050919050565b6000620008f482620008c7565b9050919050565b6200090681620008e7565b82525050565b6000602082019050620009236000830184620008fb565b92915050565b7f4e487b7100000000000000000000000000000000000000000000000000000000600052601160045260246000fd5b60006200096582620004ca565b91506200097283620004ca565b92508282019050808211156200098d576200098c62000929565b5b92915050565b6200099e81620004ca565b82525050565b6000606082019050620009bb6000830186620008fb565b620009ca602083018562000993565b620009d9604083018462000993565b949350505050565b6000602082019050620009f8600083018462000993565b92915050565b610f078062000a0e6000396000f3fe608060405234801561001057600080fd5b506004361061009e5760003560e01c806370a082311161006657806370a082311461015d57806395d89b411461018d5780639dc29fac146101ab578063a9059cbb146101c7578063dd62ed3e146101f75761009e565b806306fdde03146100a3578063095ea7b3146100c157806318160ddd146100f157806323b872dd1461010f578063313ce5671461013f575b600080fd5b6100ab610227565b6040516100b89190610b5b565b60405180910390f35b6100db60048036038101906100d69190610c16565b6102b9565b6040516100e89190610c71565b60405180910390f35b6100f96102dc565b6040516101069190610c9b565b60405180910390f35b61012960048036038101906101249190610cb6565b6102e6565b6040516101369190610c71565b60405180910390f35b610147610315565b6040516101549190610d25565b60405180910390f35b61017760048036038101906101729190610d40565b61031e565b6040516101849190610c9b565b60405180910390f35b610195610366565b6040516101a29190610b5b565b60405180910390f35b6101c560048036038101906101c09190610c16565b6103f8565b005b6101e160048036038101906101dc9190610c16565b610406565b6040516101ee9190610c71565b60405180910390f35b610211600480360381019061020c9190610d6d565b610424565b60405161021e9190610c9b565b60405180910390f35b60606003805461023690610ddc565b80601f016020809104026020016040519081016040528092919081815260200182805461026290610ddc565b80156102af5780601f10610284576101008083540402835291602001916102af565b820191906000526020600020905b81548152906001019060200180831161029257829003601f168201915b5050505050905090565b6000806102c46104ab565b90506102d18185856104b3565b600191505092915050565b6000600254905090565b6000806102f16104ab565b90506102fe8582856104c5565b610309858585610559565b60019150509392505050565b60006012905090565b60008060008373ffffffffffffffffffffffffffffffffffffffff1673ffffffffffffffffffffffffffffffffffffffff168152602001908152602001600020549050919050565b60606004805461037590610ddc565b80601f01602080910402602001604051908101604052809291908181526020018280546103a190610ddc565b80156103ee5780601f106103c3576101008083540402835291602001916103ee565b820191906000526020600020905b8154815290600101906020018083116103d157829003601f168201915b5050505050905090565b610402828261064d565b5050565b600061041a6104136104ab565b8484610559565b6001905092915050565b6000600160008473ffffffffffffffffffffffffffffffffffffffff1673ffffffffffffffffffffffffffffffffffffffff16815260200190815260200160002060008373ffffffffffffffffffffffffffffffffffffffff1673ffffffffffffffffffffffffffffffffffffffff16815260200190815260200160002054905092915050565b600033905090565b6104c083838360016106cf565b505050565b60006104d18484610424565b90507fffffffffffffffffffffffffffffffffffffffffffffffffffffffffffffffff81146105535781811015610543578281836040517ffb8f41b200000000000000000000000000000000000000000000000000000000815260040161053a93929190610e1c565b60405180910390fd5b610552848484840360006106cf565b5b50505050565b600073ffffffffffffffffffffffffffffffffffffffff168373ffffffffffffffffffffffffffffffffffffffff16036105cb5760006040517f96c6fd1e0000000000000000000000000000000000000000000000000000000081526004016105c29190610e53565b60405180910390fd5b600073ffffffffffffffffffffffffffffffffffffffff168273ffffffffffffffffffffffffffffffffffffffff160361063d5760006040517fec442f050000000000000000000000000000000000000000000000000000000081526004016106349190610e53565b60405180910390fd5b6106488383836108a6565b505050565b600073ffffffffffffffffffffffffffffffffffffffff168273ffffffffffffffffffffffffffffffffffffffff16036106bf5760006040517f96c6fd1e0000000000000000000000000000000000000000000000000000000081526004016106b69190610e53565b60405180910390fd5b6106cb826000836108a6565b5050565b600073ffffffffffffffffffffffffffffffffffffffff168473ffffffffffffffffffffffffffffffffffffffff16036107415760006040517fe602df050000000000000000000000000000000000000000000000000000000081526004016107389190610e53565b60405180910390fd5b600073ffffffffffffffffffffffffffffffffffffffff168373ffffffffffffffffffffffffffffffffffffffff16036107b35760006040517f94280d620000000000000000000000000000000000000000000000000000000081526004016107aa9190610e53565b60405180910390fd5b81600160008673ffffffffffffffffffffffffffffffffffffffff1673ffffffffffffffffffffffffffffffffffffffff16815260200190815260200160002060008573ffffffffffffffffffffffffffffffffffffffff1673ffffffffffffffffffffffffffffffffffffffff1681526020019081526020016000208190555080156108a0578273ffffffffffffffffffffffffffffffffffffffff168473ffffffffffffffffffffffffffffffffffffffff167f8c5be1e5ebec7d5bd14f71427d1e84f3dd0314c0f7b2291e5b200ac8c7c3b925846040516108979190610c9b565b60405180910390a35b50505050565b600073ffffffffffffffffffffffffffffffffffffffff168373ffffffffffffffffffffffffffffffffffffffff16036108f85780600260008282546108ec9190610e9d565b925050819055506109cb565b60008060008573ffffffffffffffffffffffffffffffffffffffff1673ffffffffffffffffffffffffffffffffffffffff16815260200190815260200160002054905081811015610984578381836040517fe450d38c00000000000000000000000000000000000000000000000000000000815260040161097b93929190610e1c565b60405180910390fd5b8181036000808673ffffffffffffffffffffffffffffffffffffffff1673ffffffffffffffffffffffffffffffffffffffff16815260200190815260200160002081905550505b600073ffffffffffffffffffffffffffffffffffffffff168273ffffffffffffffffffffffffffffffffffffffff1603610a145780600260008282540392505081905550610a61565b806000808473ffffffffffffffffffffffffffffffffffffffff1673ffffffffffffffffffffffffffffffffffffffff168152602001908152602001600020600082825401925050819055505b8173ffffffffffffffffffffffffffffffffffffffff168373ffffffffffffffffffffffffffffffffffffffff167fddf252ad1be2c89b69c2b068fc378daa952ba7f163c4a11628f55a4df523b3ef83604051610abe9190610c9b565b60405180910390a3505050565b600081519050919050565b600082825260208201905092915050565b60005b83811015610b05578082015181840152602081019050610aea565b60008484015250505050565b6000601f19601f8301169050919050565b6000610b2d82610acb565b610b378185610ad6565b9350610b47818560208601610ae7565b610b5081610b11565b840191505092915050565b60006020820190508181036000830152610b758184610b22565b905092915050565b600080fd5b600073ffffffffffffffffffffffffffffffffffffffff82169050919050565b6000610bad82610b82565b9050919050565b610bbd81610ba2565b8114610bc857600080fd5b50565b600081359050610bda81610bb4565b92915050565b6000819050919050565b610bf381610be0565b8114610bfe57600080fd5b50565b600081359050610c1081610bea565b92915050565b60008060408385031215610c2d57610c2c610b7d565b5b6000610c3b85828601610bcb565b9250506020610c4c85828601610c01565b9150509250929050565b60008115159050919050565b610c6b81610c56565b82525050565b6000602082019050610c866000830184610c62565b92915050565b610c9581610be0565b82525050565b6000602082019050610cb06000830184610c8c565b92915050565b600080600060608486031215610ccf57610cce610b7d565b5b6000610cdd86828701610bcb565b9350506020610cee86828701610bcb565b9250506040610cff86828701610c01565b9150509250925092565b600060ff82169050919050565b610d1f81610d09565b82525050565b6000602082019050610d3a6000830184610d16565b92915050565b600060208284031215610d5657610d55610b7d565b5b6000610d6484828501610bcb565b91505092915050565b60008060408385031215610d8457610d83610b7d565b5b6000610d9285828601610bcb565b9250506020610da385828601610bcb565b9150509250929050565b7f4e487b7100000000000000000000000000000000000000000000000000000000600052602260045260246000fd5b60006002820490506001821680610df457607f821691505b602082108103610e0757610e06610dad565b5b50919050565b610e1681610ba2565b82525050565b6000606082019050610e316000830186610e0d565b610e3e6020830185610c8c565b610e4b6040830184610c8c565b949350505050565b6000602082019050610e686000830184610e0d565b92915050565b7f4e487b7100000000000000000000000000000000000000000000000000000000600052601160045260246000fd5b6000610ea882610be0565b9150610eb383610be0565b9250828201905080821115610ecb57610eca610e6e565b5b9291505056fea264697066735822122093a8e9fa0556272b899f1d2ab82b0aa101961ca18bee8482135f0e5213ec21af64736f6c63430008180033",
  "linkReferences": {},
  "deployedLinkReferences": {}
}